:0D0B7F0041007A014200787E5941007B015F
:0E0B710090007AE060FAE490007AF08F99220A
:100B2D001205AAFF600C120B71740129F9E43AFA4F
:030B3D0080EE2225
:10097A00E490007CF0A3F030980FC298900077E5DD
:10098A0099F09000767401F02290007DE004F070F6
:10099A000690007CE004F0900078E0FEA3E0FFD32C
:1009AA0090007DE09F90007CE09E40CBE490007632
:0209BA00F02229
:10000E00EFFD7C00E4FF0FEFB405FBED1D70011C4E
:04001E00ED4C70F045
:0100220022BB
:100B1800AE07AF061EEF600C7FF512000E7FF512D0
:050B2800000E80EE222A
:0409FD007FFA7E00FF
:040A0100AB07AA068F
:100A05007C007DFB12062490004EEFF0AE02AF0392
:100A15007C007DFB120624AB0590004EE0FF14F030
:0F0A2500EF60077FFB120B1880EFAF03020B1877
:100B0100A907AF0119EF600E1209FD1209FD1209C3
:070B1100FD1209FD80EC223A
:0D0B8D004F4B0D0A0025752C25750D0A0033
:100B4000438E805389F0758A40758CA2C28DD28CF9
:010B50002282
:1000260053877F759850438E40538EFE53890F43F6
:0D0036008920758BF3758DF3C2ABD28E223D
:100B5100759A50438E0475D7CC75D6FF438E1022FB
:03002300020AE9E5
:100AE900C0E0C083C082309908C29990007A74012D
:080AF900F0D082D083D0E0327E
:03004300020AAD01
:100AAD00C0E0C083C082E59A30E003539AFEE59A18
:100ABD0030E109539AFD90007B7401F0D082D08310
:030ACD00D0E03244
:1003AB007F0D780FEFF6F876150876A0C2AF120B1B
:1003BB004018A68C08A68AD2A9D28C120026D2ACE1
:1003CB00120B5175AF01D2AFC2A2D2817F01120BBA
:1003DB00017B017A00790F120B9A120AD07F40121F
:1003EB000B61D281D2877F9A7E02120A0120AF0362
:1003FB0002058D12097A900076E0B401F090007737
:10040B00E090002AF012097A900076E0B401DE90B9
:10041B000077E090002BF012097A900076E0B4019F
:10042B00CC900077E090002CF012097A900076E0E7
:10043B00B401BA900077E090002DF012097A900089
:10044B0076E0B401A8900077E090002EF090002A9F
:10045B00E064C0600302050BA3E0FF900005E4F02D
:10046B00A3EFF0E0F8E4F0E8900005F090002CE04A
:10047B00FF900006E02FF0900005E03400F09000B4
:10048B002DE0FF900007E4F0A3EFF0E0F8E4F0E8D4
:10049B00900007F090002EE0FF900008E02FF09006
:1004AB000007E03400F07B017A00790FE0FEA3E057
:1004BB00FFE4FCFD120A34E4900009F0A3F0900075
:1004CB0005E0FEA3E0FFC390000AE09F900009E067
:1004DB009E500EA3E004F070E5900009E004F0805C
:1004EB00DDB2A2900018E060CE7BFF7A0B798D1203
:1004FB000B2D7B017A00790F120926C2A20203F899
:10050B0090002AE0B4C104C281800990002AE0B4B3
:10051B00C20AD2817BFF7A0B798D806090002AE032
:10052B0064C360030203F87F06120A8790000DEE86
:10053B00F0A3EFF0A295E4FF33900007CFF0A3EF09
:10054B00F090005174FFF0A3740BF0A37492F09031
:10055B00000DE0FFA3E0900054CFF0A3EFF090006C
:10056B0007E0FFA3E0900056CFF0A3EFF07B017AFA
:10057B0000792A1200AB7B017A00792A120B2D022B
:10058B0003F87F027E00120A01B2A2C2A2D281D26C
:0F059B00817F01120B01C2817F01120B0180F0E1
:03000B000209BC2B
:1009BC00C0E0C0F0C083C082C0D075D000C000C001
:1009CC0001C002C003C004C005C006C0077B017A89
:1009DC0000790F1207A8D007D006D005D004D00399
:1009EC00D002D001D000D0D0D082D083D0F0D0E0D3
:0109FC0032C8
:100AD00053947F53937F5394FD5393FD5392DF536D
:090AE00091DF4396045395FB22BB
:100B61008F9DE4F5BDF5BE75BC807F02FE020A01D2
:100A8700EF4488F5BC00000000E5BC30E4FB53BC34
:100A9700EFAFBD7E00EF7802C333CE33CED8F9FF78
:050AA700ADBEEF4DFFA4
:010AAC002227
:090B9A007E007F1B7D000206EACB
:1007A80090004BEBF0A3EAF0A3E9F090004BE0FBDC
:1007B800A3E0FAA3E0F91205AA6017900001120657
:1007C8008A9000051206BA900009E4120602E412A3
:1007D80005F090004BE0FBA3E0FAA3E0F9900005D8
:1007E80012068AE4FBFAF9F8C3120679700280400F
:1007F80090004BE0FBA3E0FAA3E0F990000A120591
:10080800C3704090000512068AEF24FFFFEE34FF04
:10081800FEED34FFFDEC34FFFC9000051206BA90A3
:10082800000512068AE4FBFAF9F8C3120679701378
:1008380090004BE0FBA3E0FAA3E0F99000097401F3
:1008480012060290004BE0FBA3E0FAA3E0F9900047
:100858000B1205C3701490000512068A90000F123F
:1008680006BA90000D740112060290004BE0FBA33B
:10087800E0FAA3E0F990000C1205C370149000058B
:1008880012068A9000131206BA90000E740112061E
:0208980002223A
:1009260090000B740112060290000D1205C3600CB4
:1009360090000F12068A9000171206BA90000DE476
:1009460012060290000BE412060290000C740112CB
:10095600060290000E1205C3600C90001312068A60
:100966009000171206BA90000EE412060290000CD0
:04097600E40206028F
:100A340090004E1206DE1205AA702090004EE0FCD3
:100A4400A3E0FDA3E0FEA3E0FF9000011206BA902C
:0C0A54000009E412060274011205F022F1
:0300000002089A59
:0C089A00787FE4F6D8FD7581210208E1AA
:1005AA00BB010689828A83E0225002E722BBFE024F
:0905BA00E32289828A83E4932282
:1005C300BB010CE58229F582E5833AF583E02250ED
:1005D30006E92582F8E622BBFE06E92582F8E22237
:0D05E300E58229F582E5833AF583E4932251
:1005F000BB010689828A83F0225002F722BBFE01EA
:02060000F322E3
:10060200F8BB010DE58229F582E5833AF583E8F02E
:10061200225006E92582C8F622BBFE05E92582C8DA
:02062200F222C2
:10062400BC000BBE0029EF8DF084FFADF022E4CCBA
:10063400F875F008EF2FFFEE33FEEC33FCEE9DEC83
:10064400984005FCEE9DFE0FD5F0E9E4CEFD22EDC9
:10065400F8F5F0EE8420D21CFEADF075F008EF2F13
:10066400FFED33FD4007985006D5F0F222C398FD04
:050674000FD5F0EA22A1
:10067900EB9FF5F0EA9E42F0E99D42F0E89C45F0D7
:01068900224E
:10068A00BB010DE58229F582E5833AF5830207224B
:10069A005007E92582F8020716BBFE07E92582F80A
:1006AA0002072EE58229F582E5833AF58302073AA5
:1006BA00BB010DE58229F582E5833AF5830206DE60
:1006CA005007E92582F802074ABBFE07E92582F8A6
:0406DA00020756229B
:0C06DE00ECF0A3EDF0A3EEF0A3EFF0228F
:10004600E5082451F582E43400F583E005082290A2
:10005600004E300703900051E475F001120762026A
:1000660005AA2000E97F2ED2008018EF540F2490B5
:10007600D43440D4FF30040BEF24BFB41A0050032D
:100086002461FFE50960021509050CE50C700205FF
:100096000B30070E90004EE475F001120762EF0276
:1000A60005F0020A607403D2078003E4C207F5086C
:1000B60090004E120779E4F509F50BF50CE5096099
:1000C600077F2012008980F5750AFFC201C200C2AF
:1000D60002C203C205C206C208120055FF700D30E7
:1000E60007057F0012009AAF0CAE0B22B4255FC243
:1000F600D5C204120055FF24D0B40A00501A75F078
:100106000A780930D50508B6FF0106C6A426F620EA
:10011600D5047002D20380D924CFB41A00EF50045C
:10012600C2E5D20402029BD20180C6D20080C0D2B0
:100136000280BCD2D580BAD20580B47F2012008955
:100146002002077401B5090040F1120046FF1200B3
:10015600890200C3D208D2068095120046FB12001F
:1001660046FA120046F94A4B7006796C7A037BFF11
:1001760020022EE509602A7E008E82758300120514
:10018600C360060EEE650A70F0C2D5EBC0E0EAC0A9
:10019600E0E9C0E0EE1202E2D0E0F9D0E0FAD0E009
:1001A600FB1205AAFF60AAEBC0E0EAC0E0E9C0E0E6
:1001B600120089D0E02401F9D0E03400FAD0E0FB47
:1001C600E50A0460DCD50AD980877BFF7A0279DEEE
:1001D600D202809C791080027908C206C208800883
:1001E600D2D5790A8004790AC2D5E50A047002F5E7
:1001F6000AE4FAFDFEFF120046FC7B0820011312FA
:100206000046FD7B1030000A120046FE120046FF33
:100216007B20EC3382D592D55013C3E43000069F81
:10022600FFE49EFEE42001039DFDE49CFCE4CBF884
:10023600C201EC700CCFCECDCCE824F8F870F38078
:1002460017C3EF33FFEE33FEED33FDEC33FCEB3338
:10025600FB994002FB0FD8E9EB300105F8D0E0C46A
:1002660048B201C0E00AEC4D4E4F78207B0070C2C8
:10027600EAB50A0040BCC0E01202E4D0F0D0E020AB
:100286000104C4C0E0C4B201C0F0120072D0F0D5BF
:10029600F0EB0200C312078201605301DA58013104
:1002A6004C012D4201DE4F01E64401E64901464379
:0802B60001EC5501D04601D016
:1002BE004501D047038C5001352D01392E015C2BA1
:1002CE00013D23015A2003752A00F5480000015410
:1002DE003F3F3F00790AA2D5200314300509B9101B
:1002EE00020404B9080104A2D5200602500104201C
:1002FE0002689202B509005034C0E07F2030031925
:10030E007F30A20272067205500F12033BC202C268
:10031E0006C205C2087F30800F300503E9C0E01227
:10032E000089300503D0E0F9D0E0B509CC300517CF
:10033E007F30B9100C1200897F583004077F788007
:10034E0003B908031200893002057F2D0200897F50
:10035E00202008F87F2B2006F322920280CF286EF1
:10036E00756C6C2900D2011200463001F8C201787A
:10037E000930D50108F60200F52D504349581200F8
:10038E00462403B405004001E49003879312007ADB
:0D039E00743A12007AD2037509040201DAE4
:1006EA00EF4E6012EF60010EEDBB010B89828A8327
:1006FA00F0A3DFFCDEFA2289F05007F709DFFCA934
:0C070A00F022BBFEFCF309DFFCA9F0228A
:1008A6000203ABE493A3F8E493A34003F68001F2BA
:1008B60008DFF48029E493A3F85407240CC8C33353
:1008C600C4540F4420C8834004F456800146F6DF22
:1008D600E4800B0102040810204080900B7FE47E28
:1008E600019360BCA3FF543F30E509541FFEE49317
:1008F600A360010ECF54C025E060A840B8E493A3DE
:10090600FAE493A3F8E493A3C8C582C8CAC583CA08
:10091600F0A3C8C582C8CAC583CADFE9DEE780BEC0
:010B8C000068
:0C071600E6FC08E6FD08E6FE08E6FF220F
:0C072200E0FCA3E0FDA3E0FEA3E0FF224A
:0C072E00E2FC08E2FD08E2FE08E2FF2207
:10073A00E493FC740193FD740293FE740393FF2205
:0C074A00ECF608EDF608EEF608EFF622DB
:0C075600ECF208EDF208EEF208EFF222DF
:10076200F8E0FBA3A3E0F925F0F0E5821582700220
:070772001583E0FA38F022C4
:09077900EBF0A3EAF0A3E9F02281
:10078200D083D082F8E4937012740193700DA3A306
:1007920093F8740193F5828883E47374029368601A
:0607A200EFA3A3A380DF1A
:100A6000EFB40A07740D120A6B740A309811A89932
:100A7000B8130CC2983098FDA899C298B811F630F6
:070A800099FDC299F59922CE
:00000001FF
